{"abi":[{"type":"constructor","inputs":[{"name":"_symbol","type":"string","internalType":"string"},{"name":"_decimals","type":"uint8","internalType":"uint8"},{"name":"_initialSupply","type":"uint256","internalType":"uint256"},{"name":"_owner","type":"address","internalType":"address"}],"stateMutability":"nonpayable"},{"type":"function","name":"allowance","inputs":[{"name":"owner_","type":"address","internalType":"address"},{"name":"spender","type":"address","internalType":"address"}],"outputs":[{"name":"","type":"uint256","internalType":"uint256"}],"stateMutability":"view"},{"type":"function","name":"approve","inputs":[{"name":"spender","type":"address","internalType":"address"},{"name":"amount","type":"uint256","internalType":"uint256"}],"outputs":[{"name":"","type":"bool","internalType":"bool"}],"stateMutability":"nonpayable"},{"type":"function","name":"balanceOf","inputs":[{"name":"account","type":"address","internalType":"address"}],"outputs":[{"name":"","type":"uint256","internalType":"uint256"}],"stateMutability":"view"},{"type":"function","name":"burn","inputs":[{"name":"amount","type":"uint256","internalType":"uint256"}],"outputs":[],"stateMutability":"nonpayable"},{"type":"function","name":"decimals","inputs":[],"outputs":[{"name":"","type":"uint8","internalType":"uint8"}],"stateMutability":"view"},{"type":"function","name":"mint","inputs":[{"name":"to","type":"address","internalType":"address"},{"name":"amount","type":"uint256","internalType":"uint256"}],"outputs":[],"stateMutability":"nonpayable"},{"type":"function","name":"owner","inputs":[],"outputs":[{"name":"","type":"address","internalType":"address"}],"stateMutability":"view"},{"type":"function","name":"symbol","inputs":[],"outputs":[{"name":"","type":"string","internalType":"string"}],"stateMutability":"view"},{"type":"function","name":"totalSupply","inputs":[],"outputs":[{"name":"","type":"uint256","internalType":"uint256"}],"stateMutability":"view"},{"type":"function","name":"transfer","inputs":[{"name":"to","type":"address","internalType":"address"},{"name":"amount","type":"uint256","internalType":"uint256"}],"outputs":[{"name":"","type":"bool","internalType":"bool"}],"stateMutability":"nonpayable"},{"type":"function","name":"transferFrom","inputs":[{"name":"from","type":"address","internalType":"address"},{"name":"to","type":"address","internalType":"address"},{"name":"amount","type":"uint256","internalType":"uint256"}],"outputs":[{"name":"","type":"bool","internalType":"bool"}],"stateMutability":"nonpayable"},{"type":"event","name":"Approval","inputs":[{"name":"owner","type":"address","indexed":true,"internalType":"address"},{"name":"spender","type":"address","indexed":true,"internalType":"address"},{"name":"value","type":"uint256","indexed":false,"internalType":"uint256"}],"anonymous":false},{"type":"event","name":"Transfer","inputs":[{"name":"from","type":"address","indexed":true,"internalType":"address"},{"name":"to","type":"address","indexed":true,"internalType":"address"},{"name":"value","type":"uint256","indexed":false,"internalType":"uint256"}],"anonymous":false}],"bytecode":{"object":"0x608060405234801561000f575f5ffd5b506040516118dc3803806118dc83398181016040528101906100319190610397565b835f908161003f919061061e565b508260015f6101000a81548160ff021916908360ff1602179055508060035f6101000a81548173ffffffffffffffffffffffffffffffffffffffff021916908373ffffffffffffffffffffffffffffffffffffffff1602179055506100aa81836100b360201b60201c565b50505050610775565b8060025f8282546100c4919061071a565b925050819055508060045f8473ffffffffffffffffffffffffffffffffffffffff1673ffffffffffffffffffffffffffffffffffffffff1681526020019081526020015f205f828254610117919061071a565b925050819055508173ffffffffffffffffffffffffffffffffffffffff165f73ffffffffffffffffffffffffffffffffffffffff167fddf252ad1be2c89b69c2b068fc378daa952ba7f163c4a11628f55a4df523b3ef8360405161017b919061075c565b60405180910390a35050565b5f604051905090565b5f5ffd5b5f5ffd5b5f5ffd5b5f5ffd5b5f601f19601f8301169050919050565b7f4e487b71000000000000000000000000000000000000000000000000000000005f52604160045260245ffd5b6101e6826101a0565b810181811067ffffffffffffffff82111715610205576102046101b0565b5b80604052505050565b5f610217610187565b905061022382826101dd565b919050565b5f67ffffffffffffffff821115610242576102416101b0565b5b61024b826101a0565b9050602081019050919050565b8281835e5f83830152505050565b5f61027861027384610228565b61020e565b9050828152602081018484840111156102945761029361019c565b5b61029f848285610258565b509392505050565b5f82601f8301126102bb576102ba610198565b5b81516102cb848260208601610266565b91505092915050565b5f60ff82169050919050565b6102e9816102d4565b81146102f3575f5ffd5b50565b5f81519050610304816102e0565b92915050565b5f819050919050565b61031c8161030a565b8114610326575f5ffd5b50565b5f8151905061033781610313565b92915050565b5f73ffffffffffffffffffffffffffffffffffffffff82169050919050565b5f6103668261033d565b9050919050565b6103768161035c565b8114610380575f5ffd5b50565b5f815190506103918161036d565b92915050565b5f5f5f5f608085870312156103af576103ae610190565b5b5f85015167ffffffffffffffff8111156103cc576103cb610194565b5b6103d8878288016102a7565b94505060206103e9878288016102f6565b93505060406103fa87828801610329565b925050606061040b87828801610383565b91505092959194509250565b5f81519050919050565b7f4e487b71000000000000000000000000000000000000000000000000000000005f52602260045260245ffd5b5f600282049050600182168061046557607f821691505b60208210810361047857610477610421565b5b50919050565b5f819050815f5260205f209050919050565b5f6020601f8301049050919050565b5f82821b905092915050565b5f600883026104da7fffffffffffffffffffffffffffffffffffffffffffffffffffffffffffffffff8261049f565b6104e4868361049f565b95508019841693508086168417925050509392505050565b5f819050919050565b5f61051f61051a6105158461030a565b6104fc565b61030a565b9050919050565b5f819050919050565b61053883610505565b61054c61054482610526565b8484546104ab565b825550505050565b5f5f905090565b610563610554565b61056e81848461052f565b505050565b5b81811015610591576105865f8261055b565b600181019050610574565b5050565b601f8211156105d6576105a78161047e565b6105b084610490565b810160208510156105bf578190505b6105d36105cb85610490565b830182610573565b50505b505050565b5f82821c905092915050565b5f6105f65f19846008026105db565b1980831691505092915050565b5f61060e83836105e7565b9150826002028217905092915050565b61062782610417565b67ffffffffffffffff8111156106405761063f6101b0565b5b61064a825461044e565b610655828285610595565b5f60209050601f831160018114610686575f8415610674578287015190505b61067e8582610603565b8655506106e5565b601f1984166106948661047e565b5f5b828110156106bb57848901518255600182019150602085019450602081019050610696565b868310156106d857848901516106d4601f8916826105e7565b8355505b6001600288020188555050505b505050505050565b7f4e487b71000000000000000000000000000000000000000000000000000000005f52601160045260245ffd5b5f6107248261030a565b915061072f8361030a565b9250828201905080821115610747576107466106ed565b5b92915050565b6107568161030a565b82525050565b5f60208201905061076f5f83018461074d565b92915050565b61115a806107825f395ff3fe608060405234801561000f575f5ffd5b50600436106100a7575f3560e01c806342966c681161006f57806342966c681461016357806370a082311461017f5780638da5cb5b146101af57806395d89b41146101cd578063a9059cbb146101eb578063dd62ed3e1461021b576100a7565b8063095ea7b3146100ab57806318160ddd146100db57806323b872dd146100f9578063313ce5671461012957806340c10f1914610147575b5f5ffd5b6100c560048036038101906100c09190610c93565b61024b565b6040516100d29190610ceb565b60405180910390f35b6100e3610338565b6040516100f09190610d13565b60405180910390f35b610113600480360381019061010e9190610d2c565b61033e565b6040516101209190610ceb565b60405180910390f35b61013161061e565b60405161013e9190610d97565b60405180910390f35b610161600480360381019061015c9190610c93565b610630565b005b61017d60048036038101906101789190610db0565b6106cd565b005b61019960048036038101906101949190610ddb565b610820565b6040516101a69190610d13565b60405180910390f35b6101b7610866565b6040516101c49190610e15565b60405180910390f35b6101d561088b565b6040516101e29190610e9e565b60405180910390f35b61020560048036038101906102009190610c93565b610916565b6040516102129190610ceb565b60405180910390f35b61023560048036038101906102309190610ebe565b610aac565b6040516102429190610d13565b60405180910390f35b5f8160055f3373ffffffffffffffffffffffffffffffffffffffff1673ffffffffffffffffffffffffffffffffffffffff1681526020019081526020015f205f8573ffffffffffffffffffffffffffffffffffffffff1673ffffffffffffffffffffffffffffffffffffffff1681526020019081526020015f20819055508273ffffffffffffffffffffffffffffffffffffffff163373ffffffffffffffffffffffffffffffffffffffff167f8c5be1e5ebec7d5bd14f71427d1e84f3dd0314c0f7b2291e5b200ac8c7c3b925846040516103269190610d13565b60405180910390a36001905092915050565b60025481565b5f8160045f8673ffffffffffffffffffffffffffffffffffffffff1673ffffffffffffffffffffffffffffffffffffffff1681526020019081526020015f205410156103bf576040517f08c379a00000000000000000000000000000000000000000000000000000000081526004016103b690610f46565b60405180910390fd5b8160055f8673ffffffffffffffffffffffffffffffffffffffff1673ffffffffffffffffffffffffffffffffffffffff1681526020019081526020015f205f3373ffffffffffffffffffffffffffffffffffffffff1673ffffffffffffffffffffffffffffffffffffffff1681526020019081526020015f2054101561047a576040517f08c379a000000000000000000000000000000000000000000000000000000000815260040161047190610fae565b60405180910390fd5b8160055f8673ffffffffffffffffffffffffffffffffffffffff1673ffffffffffffffffffffffffffffffffffffffff1681526020019081526020015f205f3373ffffffffffffffffffffffffffffffffffffffff1673ffffffffffffffffffffffffffffffffffffffff1681526020019081526020015f205f8282546105019190610ff9565b925050819055508160045f8673ffffffffffffffffffffffffffffffffffffffff1673ffffffffffffffffffffffffffffffffffffffff1681526020019081526020015f205f8282546105549190610ff9565b925050819055508160045f8573ffffffffffffffffffffffffffffffffffffffff1673ffffffffffffffffffffffffffffffffffffffff1681526020019081526020015f205f8282546105a7919061102c565b925050819055508273ffffffffffffffffffffffffffffffffffffffff168473ffffffffffffffffffffffffffffffffffffffff167fddf252ad1be2c89b69c2b068fc378daa952ba7f163c4a11628f55a4df523b3ef8460405161060b9190610d13565b60405180910390a3600190509392505050565b60015f9054906101000a900460ff1681565b60035f9054906101000a900473ffffffffffffffffffffffffffffffffffffffff1673ffffffffffffffffffffffffffffffffffffffff163373ffffffffffffffffffffffffffffffffffffffff16146106bf576040517f08c379a00000000000000000000000000000000000000000000000000000000081526004016106b6906110a9565b60405180910390fd5b6106c98282610b2e565b5050565b8060045f3373ffffffffffffffffffffffffffffffffffffffff1673ffffffffffffffffffffffffffffffffffffffff1681526020019081526020015f2054101561074d576040517f08c379a000000000000000000000000000000000000000000000000000000000815260040161074490610f46565b60405180910390fd5b8060045f3373ffffffffffffffffffffffffffffffffffffffff1673ffffffffffffffffffffffffffffffffffffffff1681526020019081526020015f205f8282546107999190610ff9565b925050819055508060025f8282546107b19190610ff9565b925050819055505f73ffffffffffffffffffffffffffffffffffffffff163373ffffffffffffffffffffffffffffffffffffffff167fddf252ad1be2c89b69c2b068fc378daa952ba7f163c4a11628f55a4df523b3ef836040516108159190610d13565b60405180910390a350565b5f60045f8373ffffffffffffffffffffffffffffffffffffffff1673ffffffffffffffffffffffffffffffffffffffff1681526020019081526020015f20549050919050565b60035f9054906101000a900473ffffffffffffffffffffffffffffffffffffffff1681565b5f8054610897906110f4565b80601f01602080910402602001604051908101604052809291908181526020018280546108c3906110f4565b801561090e5780601f106108e55761010080835404028352916020019161090e565b820191905f5260205f20905b8154815290600101906020018083116108f157829003601f168201915b505050505081565b5f8160045f3373ffffffffffffffffffffffffffffffffffffffff1673ffffffffffffffffffffffffffffffffffffffff1681526020019081526020015f20541015610997576040517f08c379a000000000000000000000000000000000000000000000000000000000815260040161098e90610f46565b60405180910390fd5b8160045f3373ffffffffffffffffffffffffffffffffffffffff1673ffffffffffffffffffffffffffffffffffffffff1681526020019081526020015f205f8282546109e39190610ff9565b925050819055508160045f8573ffffffffffffffffffffffffffffffffffffffff1673ffffffffffffffffffffffffffffffffffffffff1681526020019081526020015f205f828254610a36919061102c565b925050819055508273ffffffffffffffffffffffffffffffffffffffff163373ffffffffffffffffffffffffffffffffffffffff167fddf252ad1be2c89b69c2b068fc378daa952ba7f163c4a11628f55a4df523b3ef84604051610a9a9190610d13565b60405180910390a36001905092915050565b5f60055f8473ffffffffffffffffffffffffffffffffffffffff1673ffffffffffffffffffffffffffffffffffffffff1681526020019081526020015f205f8373ffffffffffffffffffffffffffffffffffffffff1673ffffffffffffffffffffffffffffffffffffffff1681526020019081526020015f2054905092915050565b8060025f828254610b3f919061102c565b925050819055508060045f8473ffffffffffffffffffffffffffffffffffffffff1673ffffffffffffffffffffffffffffffffffffffff1681526020019081526020015f205f828254610b92919061102c565b925050819055508173ffffffffffffffffffffffffffffffffffffffff165f73ffffffffffffffffffffffffffffffffffffffff167fddf252ad1be2c89b69c2b068fc378daa952ba7f163c4a11628f55a4df523b3ef83604051610bf69190610d13565b60405180910390a35050565b5f5ffd5b5f73ffffffffffffffffffffffffffffffffffffffff82169050919050565b5f610c2f82610c06565b9050919050565b610c3f81610c25565b8114610c49575f5ffd5b50565b5f81359050610c5a81610c36565b92915050565b5f819050919050565b610c7281610c60565b8114610c7c575f5ffd5b50565b5f81359050610c8d81610c69565b92915050565b5f5f60408385031215610ca957610ca8610c02565b5b5f610cb685828601610c4c565b9250506020610cc785828601610c7f565b9150509250929050565b5f8115159050919050565b610ce581610cd1565b82525050565b5f602082019050610cfe5f830184610cdc565b92915050565b610d0d81610c60565b82525050565b5f602082019050610d265f830184610d04565b92915050565b5f5f5f60608486031215610d4357610d42610c02565b5b5f610d5086828701610c4c565b9350506020610d6186828701610c4c565b9250506040610d7286828701610c7f565b9150509250925092565b5f60ff82169050919050565b610d9181610d7c565b82525050565b5f602082019050610daa5f830184610d88565b92915050565b5f60208284031215610dc557610dc4610c02565b5b5f610dd284828501610c7f565b91505092915050565b5f60208284031215610df057610def610c02565b5b5f610dfd84828501610c4c565b91505092915050565b610e0f81610c25565b82525050565b5f602082019050610e285f830184610e06565b92915050565b5f81519050919050565b5f82825260208201905092915050565b8281835e5f83830152505050565b5f601f19601f8301169050919050565b5f610e7082610e2e565b610e7a8185610e38565b9350610e8a818560208601610e48565b610e9381610e56565b840191505092915050565b5f6020820190508181035f830152610eb68184610e66565b905092915050565b5f5f60408385031215610ed457610ed3610c02565b5b5f610ee185828601610c4c565b9250506020610ef285828601610c4c565b9150509250929050565b7f53616c646f20696e737566696369656e746500000000000000000000000000005f82015250565b5f610f30601283610e38565b9150610f3b82610efc565b602082019050919050565b5f6020820190508181035f830152610f5d81610f24565b9050919050565b7f53656d207065726d697373616f20737566696369656e746500000000000000005f82015250565b5f610f98601883610e38565b9150610fa382610f64565b602082019050919050565b5f6020820190508181035f830152610fc581610f8c565b9050919050565b7f4e487b71000000000000000000000000000000000000000000000000000000005f52601160045260245ffd5b5f61100382610c60565b915061100e83610c60565b925082820390508181111561102657611025610fcc565b5b92915050565b5f61103682610c60565b915061104183610c60565b925082820190508082111561105957611058610fcc565b5b92915050565b7f4e6f74206f776e657200000000000000000000000000000000000000000000005f82015250565b5f611093600983610e38565b915061109e8261105f565b602082019050919050565b5f6020820190508181035f8301526110c081611087565b9050919050565b7f4e487b71000000000000000000000000000000000000000000000000000000005f52602260045260245ffd5b5f600282049050600182168061110b57607f821691505b60208210810361111e5761111d6110c7565b5b5091905056fea26469706673582212200f36a7105fa881a6873b51aaa68572146584cc8c2de1a04aeaa32f755011bd7264736f6c634300081e0033","linkReferences":{}},"methodIdentifiers":{"allowance(address,address)":"dd62ed3e","approve(address,uint256)":"095ea7b3","balanceOf(address)":"70a08231","burn(uint256)":"42966c68","decimals()":"313ce567","mint(address,uint256)":"40c10f19","owner()":"8da5cb5b","symbol()":"95d89b41","totalSupply()":"18160ddd","transfer(address,uint256)":"a9059cbb","transferFrom(address,address,uint256)":"23b872dd"},"id":16}