{"abi":[{"type":"constructor","inputs":[{"name":"initialOwner","type":"address","internalType":"address"}],"stateMutability":"nonpayable"},{"type":"receive","stateMutability":"payable"},{"type":"function","name":"NATIVE","inputs":[],"outputs":[{"name":"","type":"address","internalType":"address"}],"stateMutability":"view"},{"type":"function","name":"addLiquidity","inputs":[{"name":"token","type":"address","internalType":"address"},{"name":"amount","type":"uint256","internalType":"uint256"}],"outputs":[],"stateMutability":"payable"},{"type":"function","name":"balanceOfToken","inputs":[{"name":"","type":"address","internalType":"address"},{"name":"","type":"address","internalType":"address"}],"outputs":[{"name":"","type":"uint256","internalType":"uint256"}],"stateMutability":"view"},{"type":"function","name":"checkTokenSupported","inputs":[{"name":"token","type":"address","internalType":"address"}],"outputs":[{"name":"","type":"bool","internalType":"bool"}],"stateMutability":"view"},{"type":"function","name":"deposit","inputs":[{"name":"token","type":"address","internalType":"address"},{"name":"amount","type":"uint256","internalType":"uint256"}],"outputs":[],"stateMutability":"payable"},{"type":"function","name":"getExchangeRate","inputs":[{"name":"fromToken","type":"address","internalType":"address"},{"name":"toToken","type":"address","internalType":"address"},{"name":"amount","type":"uint256","internalType":"uint256"}],"outputs":[{"name":"","type":"uint256","internalType":"uint256"}],"stateMutability":"view"},{"type":"function","name":"getTokenPrice","inputs":[{"name":"token","type":"address","internalType":"address"}],"outputs":[{"name":"","type":"uint256","internalType":"uint256"}],"stateMutability":"view"},{"type":"function","name":"getTokenPriceFeedInfo","inputs":[{"name":"token","type":"address","internalType":"address"}],"outputs":[{"name":"priceFeed","type":"address","internalType":"address"},{"name":"decimals","type":"uint256","internalType":"uint256"},{"name":"supported","type":"bool","internalType":"bool"}],"stateMutability":"view"},{"type":"function","name":"getTokenSymbol","inputs":[{"name":"token","type":"address","internalType":"address"}],"outputs":[{"name":"","type":"string","internalType":"string"}],"stateMutability":"view"},{"type":"function","name":"isTokenSupported","inputs":[{"name":"","type":"address","internalType":"address"}],"outputs":[{"name":"","type":"bool","internalType":"bool"}],"stateMutability":"view"},{"type":"function","name":"owner","inputs":[],"outputs":[{"name":"","type":"address","internalType":"address"}],"stateMutability":"view"},{"type":"function","name":"poolLiquidity","inputs":[{"name":"","type":"address","internalType":"address"}],"outputs":[{"name":"","type":"uint256","internalType":"uint256"}],"stateMutability":"view"},{"type":"function","name":"removeLiquidity","inputs":[{"name":"token","type":"address","internalType":"address"},{"name":"amount","type":"uint256","internalType":"uint256"}],"outputs":[],"stateMutability":"nonpayable"},{"type":"function","name":"renounceOwnership","inputs":[],"outputs":[],"stateMutability":"nonpayable"},{"type":"function","name":"setTokenPriceFeed","inputs":[{"name":"token","type":"address","internalType":"address"},{"name":"priceFeed","type":"address","internalType":"address"},{"name":"decimals","type":"uint256","internalType":"uint256"}],"outputs":[],"stateMutability":"nonpayable"},{"type":"function","name":"setUSDToken","inputs":[{"name":"token","type":"address","internalType":"address"},{"name":"decimals","type":"uint256","internalType":"uint256"}],"outputs":[],"stateMutability":"nonpayable"},{"type":"function","name":"swap","inputs":[{"name":"buyToken","type":"address","internalType":"address"},{"name":"sellToken","type":"address","internalType":"address"},{"name":"quantity","type":"uint256","internalType":"uint256"}],"outputs":[{"name":"amountOut","type":"uint256","internalType":"uint256"}],"stateMutability":"nonpayable"},{"type":"function","name":"tokenDecimals","inputs":[{"name":"","type":"address","internalType":"address"}],"outputs":[{"name":"","type":"uint256","internalType":"uint256"}],"stateMutability":"view"},{"type":"function","name":"tokenPriceFeeds","inputs":[{"name":"","type":"address","internalType":"address"}],"outputs":[{"name":"","type":"address","internalType":"contract AggregatorV3Interface"}],"stateMutability":"view"},{"type":"function","name":"transferInternal","inputs":[{"name":"token","type":"address","internalType":"address"},{"name":"to","type":"address","internalType":"address"},{"name":"amount","type":"uint256","internalType":"uint256"}],"outputs":[],"stateMutability":"nonpayable"},{"type":"function","name":"transferOwnership","inputs":[{"name":"newOwner","type":"address","internalType":"address"}],"outputs":[],"stateMutability":"nonpayable"},{"type":"function","name":"withdraw","inputs":[{"name":"token","type":"address","internalType":"address"},{"name":"amount","type":"uint256","internalType":"uint256"},{"name":"to","type":"address","internalType":"address"}],"outputs":[],"stateMutability":"nonpayable"},{"type":"event","name":"Deposit","inputs":[{"name":"user","type":"address","indexed":true,"internalType":"address"},{"name":"token","type":"address","indexed":true,"internalType":"address"},{"name":"amount","type":"uint256","indexed":false,"internalType":"uint256"}],"anonymous":false},{"type":"event","name":"LiquidityAdded","inputs":[{"name":"token","type":"address","indexed":true,"internalType":"address"},{"name":"amount","type":"uint256","indexed":false,"internalType":"uint256"}],"anonymous":false},{"type":"event","name":"LiquidityRemoved","inputs":[{"name":"token","type":"address","indexed":true,"internalType":"address"},{"name":"amount","type":"uint256","indexed":false,"internalType":"uint256"}],"anonymous":false},{"type":"event","name":"NativeReceived","inputs":[{"name":"user","type":"address","indexed":true,"internalType":"address"},{"name":"amount","type":"uint256","indexed":false,"internalType":"uint256"}],"anonymous":false},{"type":"event","name":"OwnershipTransferred","inputs":[{"name":"previousOwner","type":"address","indexed":true,"internalType":"address"},{"name":"newOwner","type":"address","indexed":true,"internalType":"address"}],"anonymous":false},{"type":"event","name":"Swap","inputs":[{"name":"user","type":"address","indexed":true,"internalType":"address"},{"name":"tokenIn","type":"address","indexed":false,"internalType":"address"},{"name":"tokenOut","type":"address","indexed":false,"internalType":"address"},{"name":"amountIn","type":"uint256","indexed":false,"internalType":"uint256"},{"name":"amountOut","type":"uint256","indexed":false,"internalType":"uint256"}],"anonymous":false},{"type":"event","name":"TokenPriceFeedSet","inputs":[{"name":"token","type":"address","indexed":true,"internalType":"address"},{"name":"priceFeed","type":"address","indexed":true,"internalType":"address"},{"name":"decimals","type":"uint256","indexed":false,"internalType":"uint256"}],"anonymous":false},{"type":"event","name":"TokenSupportToggled","inputs":[{"name":"token","type":"address","indexed":true,"internalType":"address"},{"name":"supported","type":"bool","indexed":false,"internalType":"bool"}],"anonymous":false},{"type":"event","name":"TransferInternal","inputs":[{"name":"from","type":"address","indexed":true,"internalType":"address"},{"name":"to","type":"address","indexed":true,"internalType":"address"},{"name":"token","type":"address","indexed":true,"internalType":"address"},{"name":"amount","type":"uint256","indexed":false,"internalType":"uint256"}],"anonymous":false},{"type":"event","name":"USDTokenSet","inputs":[{"name":"token","type":"address","indexed":true,"internalType":"address"},{"name":"decimals","type":"uint256","indexed":false,"internalType":"uint256"}],"anonymous":false},{"type":"event","name":"Withdraw","inputs":[{"name":"user","type":"address","indexed":true,"internalType":"address"},{"name":"token","type":"address","indexed":true,"internalType":"address"},{"name":"to","type":"address","indexed":true,"internalType":"address"},{"name":"amount","type":"uint256","indexed":false,"internalType":"uint256"}],"anonymous":false},{"type":"error","name":"OwnableInvalidOwner","inputs":[{"name":"owner","type":"address","internalType":"address"}]},{"type":"error","name":"OwnableUnauthorizedAccount","inputs":[{"name":"account","type":"address","internalType":"address"}]},{"type":"error","name":"ReentrancyGuardReentrantCall","inputs":[]},{"type":"error","name":"SafeERC20FailedOperation","inputs":[{"name":"token","type":"address","internalType":"address"}]}],"bytecode":{"object":"0x608060405234801561000f575f5ffd5b5060405161375f38038061375f833981810160405281019061003191906101e0565b8060015f819055505f73ffffffffffffffffffffffffffffffffffffffff168173ffffffffffffffffffffffffffffffffffffffff16036100a9575f6040517f1e4fbdf70000000000000000000000000000000000000000000000000000000081526004016100a0919061021a565b60405180910390fd5b6100b8816100bf60201b60201c565b5050610233565b5f60015f9054906101000a900473ffffffffffffffffffffffffffffffffffffffff1690508160015f6101000a81548173ffffffffffffffffffffffffffffffffffffffff021916908373ffffffffffffffffffffffffffffffffffffffff1602179055508173ffffffffffffffffffffffffffffffffffffffff168173ffffffffffffffffffffffffffffffffffffffff167f8be0079c531659141344cd1fd0a4f28419497f9722a3daafe3b4186f6b6457e060405160405180910390a35050565b5f5ffd5b5f73ffffffffffffffffffffffffffffffffffffffff82169050919050565b5f6101af82610186565b9050919050565b6101bf816101a5565b81146101c9575f5ffd5b50565b5f815190506101da816101b6565b92915050565b5f602082840312156101f5576101f4610182565b5b5f610202848285016101cc565b91505092915050565b610214816101a5565b82525050565b5f60208201905061022d5f83018461020b565b92915050565b61351f806102405f395ff3fe608060405260043610610138575f3560e01c80638ee573ac116100aa578063d02641a01161006e578063d02641a014610477578063df791e50146104b3578063e567bae2146104ef578063f2fde38b1461052d578063f59e38b714610555578063fc10b027146105915761018d565b80638ee573ac14610371578063a0cf0aea146103ad578063a135ef17146103d7578063a201ccf614610413578063bd9c47e31461043b5761018d565b80636b441d8a116100fc5780636b441d8a14610241578063715018a61461027d57806375151b631461029357806381a73ad5146102cf57806381f8a6f71461030b5780638da5cb5b146103475761018d565b8063222f5be01461019157806333cccdb1146101b957806347e7ef24146101e157806356688700146101fd57806369328dec146102195761018d565b3661018d573373ffffffffffffffffffffffffffffffffffffffff167f8ac633e5b094e1150d2a6495df4d0c77f51d293abe99e7733c78870dfbee76603460405161018391906126d0565b60405180910390a2005b5f5ffd5b34801561019c575f5ffd5b506101b760048036038101906101b2919061277e565b6105b9565b005b3480156101c4575f5ffd5b506101df60048036038101906101da919061277e565b61089a565b005b6101fb60048036038101906101f691906127ce565b610ace565b005b610217600480360381019061021291906127ce565b610df9565b005b348015610224575f5ffd5b5061023f600480360381019061023a919061280c565b611088565b005b34801561024c575f5ffd5b506102676004803603810190610262919061277e565b611393565b60405161027491906126d0565b60405180910390f35b348015610288575f5ffd5b506102916113eb565b005b34801561029e575f5ffd5b506102b960048036038101906102b4919061285c565b6113fe565b6040516102c691906128a1565b60405180910390f35b3480156102da575f5ffd5b506102f560048036038101906102f0919061285c565b61141b565b604051610302919061292a565b60405180910390f35b348015610316575f5ffd5b50610331600480360381019061032c919061285c565b611494565b60405161033e91906128a1565b60405180910390f35b348015610352575f5ffd5b5061035b6114e6565b6040516103689190612959565b60405180910390f35b34801561037c575f5ffd5b506103976004803603810190610392919061285c565b61150e565b6040516103a491906126d0565b60405180910390f35b3480156103b8575f5ffd5b506103c1611523565b6040516103ce9190612959565b60405180910390f35b3480156103e2575f5ffd5b506103fd60048036038101906103f8919061285c565b611527565b60405161040a91906126d0565b60405180910390f35b34801561041e575f5ffd5b50610439600480360381019061043491906127ce565b61153c565b005b348015610446575f5ffd5b50610461600480360381019061045c919061285c565b611721565b60405161046e91906129cd565b60405180910390f35b348015610482575f5ffd5b5061049d6004803603810190610498919061285c565b611751565b6040516104aa91906126d0565b60405180910390f35b3480156104be575f5ffd5b506104d960048036038101906104d4919061277e565b611a53565b6040516104e691906126d0565b60405180910390f35b3480156104fa575f5ffd5b506105156004803603810190610510919061285c565b611f6b565b604051610524939291906129e6565b60405180910390f35b348015610538575f5ffd5b50610553600480360381019061054e919061285c565b612060565b005b348015610560575f5ffd5b5061057b60048036038101906105769190612a1b565b6120e4565b60405161058891906126d0565b60405180910390f35b34801561059c575f5ffd5b506105b760048036038101906105b291906127ce565b612104565b005b60065f8473ffffffffffffffffffffffffffffffffffffffff1673ffffffffffffffffffffffffffffffffffffffff1681526020019081526020015f205f9054906101000a900460ff16610642576040517f08c379a000000000000000000000000000000000000000000000000000000000815260040161063990612aa3565b60405180910390fd5b8060025f3373ffffffffffffffffffffffffffffffffffffffff1673ffffffffffffffffffffffffffffffffffffffff1681526020019081526020015f205f8573ffffffffffffffffffffffffffffffffffffffff1673ffffffffffffffffffffffffffffffffffffffff1681526020019081526020015f205410156106fd576040517f08c379a00000000000000000000000000000000000000000000000000000000081526004016106f490612b0b565b60405180910390fd5b8060025f3373ffffffffffffffffffffffffffffffffffffffff1673ffffffffffffffffffffffffffffffffffffffff1681526020019081526020015f205f8573ffffffffffffffffffffffffffffffffffffffff1673ffffffffffffffffffffffffffffffffffffffff1681526020019081526020015f205f8282546107849190612b56565b925050819055508060025f8473ffffffffffffffffffffffffffffffffffffffff1673ffffffffffffffffffffffffffffffffffffffff1681526020019081526020015f205f8573ffffffffffffffffffffffffffffffffffffffff1673ffffffffffffffffffffffffffffffffffffffff1681526020019081526020015f205f8282546108129190612b89565b925050819055508273ffffffffffffffffffffffffffffffffffffffff168273ffffffffffffffffffffffffffffffffffffffff163373ffffffffffffffffffffffffffffffffffffffff167fbf9f090e00e17cb3c9cbb970dd3f717c27db82db96662d6da3bab617456822528460405161088d91906126d0565b60405180910390a4505050565b6108a26122a5565b5f73ffffffffffffffffffffffffffffffffffffffff168273ffffffffffffffffffffffffffffffffffffffff1603610910576040517f08c379a000000000000000000000000000000000000000000000000000000000815260040161090790612c06565b60405180910390fd5b5f8111610952576040517f08c379a000000000000000000000000000000000000000000000000000000000815260040161094990612c6e565b60405180910390fd5b8160045f8573ffffffffffffffffffffffffffffffffffffffff1673ffffffffffffffffffffffffffffffffffffffff1681526020019081526020015f205f6101000a81548173ffffffffffffffffffffffffffffffffffffffff021916908373ffffffffffffffffffffffffffffffffffffffff1602179055508060055f8573ffffffffffffffffffffffffffffffffffffffff1673ffffffffffffffffffffffffffffffffffffffff1681526020019081526020015f2081905550600160065f8573ffffffffffffffffffffffffffffffffffffffff1673ffffffffffffffffffffffffffffffffffffffff1681526020019081526020015f205f6101000a81548160ff0219169083151502179055508173ffffffffffffffffffffffffffffffffffffffff168373ffffffffffffffffffffffffffffffffffffffff167f5d68ccc65033710d56aaa841915647593b5f4546ef70b2fb4318913743cb0e9b83604051610ac191906126d0565b60405180910390a3505050565b610ad661232c565b60065f8373ffffffffffffffffffffffffffffffffffffffff1673ffffffffffffffffffffffffffffffffffffffff1681526020019081526020015f205f9054906101000a900460ff16610b5f576040517f08c379a0000000000000000000000000000000000000000000000000000000008152600401610b5690612aa3565b60405180910390fd5b5f73ffffffffffffffffffffffffffffffffffffffff168273ffffffffffffffffffffffffffffffffffffffff1603610ccc575f3411610bd4576040517f08c379a0000000000000000000000000000000000000000000000000000000008152600401610bcb90612cd6565b60405180910390fd5b3460025f3373ffffffffffffffffffffffffffffffffffffffff1673ffffffffffffffffffffffffffffffffffffffff1681526020019081526020015f205f5f73ffffffffffffffffffffffffffffffffffffffff1673ffffffffffffffffffffffffffffffffffffffff1681526020019081526020015f205f828254610c5b9190612b89565b925050819055505f73ffffffffffffffffffffffffffffffffffffffff163373ffffffffffffffffffffffffffffffffffffffff167f5548c837ab068cf56a2c2479df0882a4922fd203edb7517321831d95078c5f6234604051610cbf91906126d0565b60405180910390a3610ded565b610cf93330838573ffffffffffffffffffffffffffffffffffffffff16612370909392919063ffffffff16565b8060025f3373ffffffffffffffffffffffffffffffffffffffff1673ffffffffffffffffffffffffffffffffffffffff1681526020019081526020015f205f8473ffffffffffffffffffffffffffffffffffffffff1673ffffffffffffffffffffffffffffffffffffffff1681526020019081526020015f205f828254610d809190612b89565b925050819055508173ffffffffffffffffffffffffffffffffffffffff163373ffffffffffffffffffffffffffffffffffffffff167f5548c837ab068cf56a2c2479df0882a4922fd203edb7517321831d95078c5f6283604051610de491906126d0565b60405180910390a35b610df56123f2565b5050565b610e016122a5565b610e0961232c565b60065f8373ffffffffffffffffffffffffffffffffffffffff1673ffffffffffffffffffffffffffffffffffffffff1681526020019081526020015f205f9054906101000a900460ff16610e92576040517f08c379a0000000000000000000000000000000000000000000000000000000008152600401610e8990612aa3565b60405180910390fd5b5f73ffffffffffffffffffffffffffffffffffffffff168273ffffffffffffffffffffffffffffffffffffffff1603610fad575f3411610f07576040517f08c379a0000000000000000000000000000000000000000000000000000000008152600401610efe90612cd6565b60405180910390fd5b3460035f5f73ffffffffffffffffffffffffffffffffffffffff1673ffffffffffffffffffffffffffffffffffffffff1681526020019081526020015f205f828254610f539190612b89565b925050819055505f73ffffffffffffffffffffffffffffffffffffffff167fc17cea59c2955cb181b03393209566960365771dbba9dc3d510180e7cb31208834604051610fa091906126d0565b60405180910390a261107c565b610fda3330838573ffffffffffffffffffffffffffffffffffffffff16612370909392919063ffffffff16565b8060035f8473ffffffffffffffffffffffffffffffffffffffff1673ffffffffffffffffffffffffffffffffffffffff1681526020019081526020015f205f8282546110269190612b89565b925050819055508173ffffffffffffffffffffffffffffffffffffffff167fc17cea59c2955cb181b03393209566960365771dbba9dc3d510180e7cb3120888260405161107391906126d0565b60405180910390a25b6110846123f2565b5050565b61109061232c565b60065f8473ffffffffffffffffffffffffffffffffffffffff1673ffffffffffffffffffffffffffffffffffffffff1681526020019081526020015f205f9054906101000a900460ff16611119576040517f08c379a000000000000000000000000000000000000000000000000000000000815260040161111090612aa3565b60405180910390fd5b8160025f3373ffffffffffffffffffffffffffffffffffffffff1673ffffffffffffffffffffffffffffffffffffffff1681526020019081526020015f205f8573ffffffffffffffffffffffffffffffffffffffff1673ffffffffffffffffffffffffffffffffffffffff1681526020019081526020015f205410156111d4576040517f08c379a00000000000000000000000000000000000000000000000000000000081526004016111cb90612b0b565b60405180910390fd5b8160025f3373ffffffffffffffffffffffffffffffffffffffff1673ffffffffffffffffffffffffffffffffffffffff1681526020019081526020015f205f8573ffffffffffffffffffffffffffffffffffffffff1673ffffffffffffffffffffffffffffffffffffffff1681526020019081526020015f205f82825461125b9190612b56565b925050819055505f73ffffffffffffffffffffffffffffffffffffffff168373ffffffffffffffffffffffffffffffffffffffff16036112de578073ffffffffffffffffffffffffffffffffffffffff166108fc8390811502906040515f60405180830381858888f193505050501580156112d8573d5f5f3e3d5ffd5b5061130a565b61130981838573ffffffffffffffffffffffffffffffffffffffff166123fb9092919063ffffffff16565b5b8073ffffffffffffffffffffffffffffffffffffffff168373ffffffffffffffffffffffffffffffffffffffff163373ffffffffffffffffffffffffffffffffffffffff167f3115d1449a7b732c986cba18244e897a450f61e1bb8d589cd2e69e6c8924f9f78560405161137e91906126d0565b60405180910390a461138e6123f2565b505050565b5f5f61139e85611751565b90505f6113aa85611751565b90505f8214806113b957505f81145b156113c8575f925050506113e4565b8082856113d59190612cf4565b6113df9190612d62565b925050505b9392505050565b6113f36122a5565b6113fc5f61247a565b565b6006602052805f5260405f205f915054906101000a900460ff1681565b60608173ffffffffffffffffffffffffffffffffffffffff166395d89b416040518163ffffffff1660e01b81526004015f60405180830381865afa158015611465573d5f5f3e3d5ffd5b505050506040513d5f823e3d601f19601f8201168201806040525081019061148d9190612eb0565b9050919050565b5f60065f8373ffffffffffffffffffffffffffffffffffffffff1673ffffffffffffffffffffffffffffffffffffffff1681526020019081526020015f205f9054906101000a900460ff169050919050565b5f60015f9054906101000a900473ffffffffffffffffffffffffffffffffffffffff16905090565b6005602052805f5260405f205f915090505481565b5f81565b6003602052805f5260405f205f915090505481565b6115446122a5565b61154c61232c565b8060035f8473ffffffffffffffffffffffffffffffffffffffff1673ffffffffffffffffffffffffffffffffffffffff1681526020019081526020015f205410156115cc576040517f08c379a00000000000000000000000000000000000000000000000000000000081526004016115c390612f41565b60405180910390fd5b8060035f8473ffffffffffffffffffffffffffffffffffffffff1673ffffffffffffffffffffffffffffffffffffffff1681526020019081526020015f205f8282546116189190612b56565b925050819055505f73ffffffffffffffffffffffffffffffffffffffff168273ffffffffffffffffffffffffffffffffffffffff160361169b573373ffffffffffffffffffffffffffffffffffffffff166108fc8290811502906040515f60405180830381858888f19350505050158015611695573d5f5f3e3d5ffd5b506116c7565b6116c633828473ffffffffffffffffffffffffffffffffffffffff166123fb9092919063ffffffff16565b5b8173ffffffffffffffffffffffffffffffffffffffff167fc2c3f06e49b9f15e7b4af9055e183b0d73362e033ad82a07dec9bf98401717198260405161170d91906126d0565b60405180910390a261171d6123f2565b5050565b6004602052805f5260405f205f915054906101000a900473ffffffffffffffffffffffffffffffffffffffff1681565b5f60065f8373ffffffffffffffffffffffffffffffffffffffff1673ffffffffffffffffffffffffffffffffffffffff1681526020019081526020015f205f9054906101000a900460ff166117db576040517f08c379a00000000000000000000000000000000000000000000000000000000081526004016117d290612aa3565b60405180910390fd5b5f73ffffffffffffffffffffffffffffffffffffffff168273ffffffffffffffffffffffffffffffffffffffff16036118ec575f60045f8473ffffffffffffffffffffffffffffffffffffffff1673ffffffffffffffffffffffffffffffffffffffff1681526020019081526020015f205f9054906101000a900473ffffffffffffffffffffffffffffffffffffffff1690505f8173ffffffffffffffffffffffffffffffffffffffff1663feaf968c6040518163ffffffff1660e01b815260040160a060405180830381865afa1580156118b8573d5f5f3e3d5ffd5b505050506040513d601f19601f820116820180604052508101906118dc9190612fe5565b5050509150508092505050611a4e565b6118f58261253d565b15611906576305f5e1009050611a4e565b5f60045f8473ffffffffffffffffffffffffffffffffffffffff1673ffffffffffffffffffffffffffffffffffffffff1681526020019081526020015f205f9054906101000a900473ffffffffffffffffffffffffffffffffffffffff1690505f73ffffffffffffffffffffffffffffffffffffffff168173ffffffffffffffffffffffffffffffffffffffff16036119d4576040517f08c379a00000000000000000000000000000000000000000000000000000000081526004016119cb906130a6565b60405180910390fd5b5f8173ffffffffffffffffffffffffffffffffffffffff1663feaf968c6040518163ffffffff1660e01b815260040160a060405180830381865afa158015611a1e573d5f5f3e3d5ffd5b505050506040513d601f19601f82011682018060405250810190611a429190612fe5565b50505091505080925050505b919050565b5f611a5c61232c565b8373ffffffffffffffffffffffffffffffffffffffff168373ffffffffffffffffffffffffffffffffffffffff1603611aca576040517f08c379a0000000000000000000000000000000000000000000000000000000008152600401611ac19061310e565b60405180910390fd5b5f8211611b0c576040517f08c379a0000000000000000000000000000000000000000000000000000000008152600401611b0390613176565b60405180910390fd5b8160025f3373ffffffffffffffffffffffffffffffffffffffff1673ffffffffffffffffffffffffffffffffffffffff1681526020019081526020015f205f8573ffffffffffffffffffffffffffffffffffffffff1673ffffffffffffffffffffffffffffffffffffffff1681526020019081526020015f20541015611bc7576040517f08c379a0000000000000000000000000000000000000000000000000000000008152600401611bbe906131de565b60405180910390fd5b5f60035f8673ffffffffffffffffffffffffffffffffffffffff1673ffffffffffffffffffffffffffffffffffffffff1681526020019081526020015f205411611c46576040517f08c379a0000000000000000000000000000000000000000000000000000000008152600401611c3d90613246565b60405180910390fd5b5f611c5084611751565b90505f611c5c86611751565b90505f82118015611c6c57505f81115b611cab576040517f08c379a0000000000000000000000000000000000000000000000000000000008152600401611ca2906132ae565b60405180910390fd5b808285611cb89190612cf4565b611cc29190612d62565b92508260035f8873ffffffffffffffffffffffffffffffffffffffff1673ffffffffffffffffffffffffffffffffffffffff1681526020019081526020015f20541015611d44576040517f08c379a0000000000000000000000000000000000000000000000000000000008152600401611d3b90613316565b60405180910390fd5b8360025f3373ffffffffffffffffffffffffffffffffffffffff1673ffffffffffffffffffffffffffffffffffffffff1681526020019081526020015f205f8773ffffffffffffffffffffffffffffffffffffffff1673ffffffffffffffffffffffffffffffffffffffff1681526020019081526020015f205f828254611dcb9190612b56565b925050819055508260025f3373ffffffffffffffffffffffffffffffffffffffff1673ffffffffffffffffffffffffffffffffffffffff1681526020019081526020015f205f8873ffffffffffffffffffffffffffffffffffffffff1673ffffffffffffffffffffffffffffffffffffffff1681526020019081526020015f205f828254611e599190612b89565b925050819055508360035f8773ffffffffffffffffffffffffffffffffffffffff1673ffffffffffffffffffffffffffffffffffffffff1681526020019081526020015f205f828254611eac9190612b89565b925050819055508260035f8873ffffffffffffffffffffffffffffffffffffffff1673ffffffffffffffffffffffffffffffffffffffff1681526020019081526020015f205f828254611eff9190612b56565b925050819055503373ffffffffffffffffffffffffffffffffffffffff167fcd3829a3813dc3cdd188fd3d01dcf3268c16be2fdd2dd21d0665418816e4606286888787604051611f529493929190613334565b60405180910390a25050611f646123f2565b9392505050565b5f5f5f60045f8573ffffffffffffffffffffffffffffffffffffffff1673ffffffffffffffffffffffffffffffffffffffff1681526020019081526020015f205f9054906101000a900473ffffffffffffffffffffffffffffffffffffffff1660055f8673ffffffffffffffffffffffffffffffffffffffff1673ffffffffffffffffffffffffffffffffffffffff1681526020019081526020015f205460065f8773ffffffffffffffffffffffffffffffffffffffff1673ffffffffffffffffffffffffffffffffffffffff1681526020019081526020015f205f9054906101000a900460ff169250925092509193909250565b6120686122a5565b5f73ffffffffffffffffffffffffffffffffffffffff168173ffffffffffffffffffffffffffffffffffffffff16036120d8575f6040517f1e4fbdf70000000000000000000000000000000000000000000000000000000081526004016120cf9190612959565b60405180910390fd5b6120e18161247a565b50565b6002602052815f5260405f20602052805f5260405f205f91509150505481565b61210c6122a5565b5f73ffffffffffffffffffffffffffffffffffffffff168273ffffffffffffffffffffffffffffffffffffffff160361217a576040517f08c379a0000000000000000000000000000000000000000000000000000000008152600401612171906133c1565b60405180910390fd5b5f81116121bc576040517f08c379a00000000000000000000000000000000000000000000000000000000081526004016121b390612c6e565b60405180910390fd5b8060055f8473ffffffffffffffffffffffffffffffffffffffff1673ffffffffffffffffffffffffffffffffffffffff1681526020019081526020015f2081905550600160065f8473ffffffffffffffffffffffffffffffffffffffff1673ffffffffffffffffffffffffffffffffffffffff1681526020019081526020015f205f6101000a81548160ff0219169083151502179055508173ffffffffffffffffffffffffffffffffffffffff167fb130be391ace1d9eab9f069ed2b6e1bc8400a41c6bc6570f0c8b2a4ef589deb08260405161229991906126d0565b60405180910390a25050565b6122ad612616565b73ffffffffffffffffffffffffffffffffffffffff166122cb6114e6565b73ffffffffffffffffffffffffffffffffffffffff161461232a576122ee612616565b6040517f118cdaa70000000000000000000000000000000000000000000000000000000081526004016123219190612959565b60405180910390fd5b565b60025f5403612367576040517f3ee5aeb500000000000000000000000000000000000000000000000000000000815260040160405180910390fd5b60025f81905550565b6123ec848573ffffffffffffffffffffffffffffffffffffffff166323b872dd8686866040516024016123a5939291906133df565b604051602081830303815290604052915060e01b6020820180517bffffffffffffffffffffffffffffffffffffffffffffffffffffffff838183161783525050505061261d565b50505050565b60015f81905550565b612475838473ffffffffffffffffffffffffffffffffffffffff1663a9059cbb858560405160240161242e929190613414565b604051602081830303815290604052915060e01b6020820180517bffffffffffffffffffffffffffffffffffffffffffffffffffffffff838183161783525050505061261d565b505050565b5f60015f9054906101000a900473ffffffffffffffffffffffffffffffffffffffff1690508160015f6101000a81548173ffffffffffffffffffffffffffffffffffffffff021916908373ffffffffffffffffffffffffffffffffffffffff1602179055508173ffffffffffffffffffffffffffffffffffffffff168173ffffffffffffffffffffffffffffffffffffffff167f8be0079c531659141344cd1fd0a4f28419497f9722a3daafe3b4186f6b6457e060405160405180910390a35050565b5f3073ffffffffffffffffffffffffffffffffffffffff166381a73ad5836040518263ffffffff1660e01b81526004016125779190612959565b5f60405180830381865afa9250505080156125b457506040513d5f823e3d601f19601f820116820180604052508101906125b19190612eb0565b60015b6125c0575f9050612611565b6040516020016125cf9061348f565b60405160208183030381529060405280519060200120816040516020016125f691906134d3565b60405160208183030381529060405280519060200120149150505b919050565b5f33905090565b5f5f60205f8451602086015f885af18061263c576040513d5f823e3d81fd5b3d92505f519150505f8214612655576001811415612670565b5f8473ffffffffffffffffffffffffffffffffffffffff163b145b156126b257836040517f5274afe70000000000000000000000000000000000000000000000000000000081526004016126a99190612959565b60405180910390fd5b50505050565b5f819050919050565b6126ca816126b8565b82525050565b5f6020820190506126e35f8301846126c1565b92915050565b5f604051905090565b5f5ffd5b5f5ffd5b5f73ffffffffffffffffffffffffffffffffffffffff82169050919050565b5f612723826126fa565b9050919050565b61273381612719565b811461273d575f5ffd5b50565b5f8135905061274e8161272a565b92915050565b61275d816126b8565b8114612767575f5ffd5b50565b5f8135905061277881612754565b92915050565b5f5f5f60608486031215612795576127946126f2565b5b5f6127a286828701612740565b93505060206127b386828701612740565b92505060406127c48682870161276a565b9150509250925092565b5f5f604083850312156127e4576127e36126f2565b5b5f6127f185828601612740565b92505060206128028582860161276a565b9150509250929050565b5f5f5f60608486031215612823576128226126f2565b5b5f61283086828701612740565b93505060206128418682870161276a565b925050604061285286828701612740565b9150509250925092565b5f60208284031215612871576128706126f2565b5b5f61287e84828501612740565b91505092915050565b5f8115159050919050565b61289b81612887565b82525050565b5f6020820190506128b45f830184612892565b92915050565b5f81519050919050565b5f82825260208201905092915050565b8281835e5f83830152505050565b5f601f19601f8301169050919050565b5f6128fc826128ba565b61290681856128c4565b93506129168185602086016128d4565b61291f816128e2565b840191505092915050565b5f6020820190508181035f83015261294281846128f2565b905092915050565b61295381612719565b82525050565b5f60208201905061296c5f83018461294a565b92915050565b5f819050919050565b5f61299561299061298b846126fa565b612972565b6126fa565b9050919050565b5f6129a68261297b565b9050919050565b5f6129b78261299c565b9050919050565b6129c7816129ad565b82525050565b5f6020820190506129e05f8301846129be565b92915050565b5f6060820190506129f95f83018661294a565b612a0660208301856126c1565b612a136040830184612892565b949350505050565b5f5f60408385031215612a3157612a306126f2565b5b5f612a3e85828601612740565b9250506020612a4f85828601612740565b9150509250929050565b7f544f4b454e5f4e4f545f535550504f52544544000000000000000000000000005f82015250565b5f612a8d6013836128c4565b9150612a9882612a59565b602082019050919050565b5f6020820190508181035f830152612aba81612a81565b9050919050565b7f494e53554646494349454e545f42414c000000000000000000000000000000005f82015250565b5f612af56010836128c4565b9150612b0082612ac1565b602082019050919050565b5f6020820190508181035f830152612b2281612ae9565b9050919050565b7f4e487b71000000000000000000000000000000000000000000000000000000005f52601160045260245ffd5b5f612b60826126b8565b9150612b6b836126b8565b9250828203905081811115612b8357612b82612b29565b5b92915050565b5f612b93826126b8565b9150612b9e836126b8565b9250828201905080821115612bb657612bb5612b29565b5b92915050565b7f494e56414c49445f50524943455f4645454400000000000000000000000000005f82015250565b5f612bf06012836128c4565b9150612bfb82612bbc565b602082019050919050565b5f6020820190508181035f830152612c1d81612be4565b9050919050565b7f494e56414c49445f444543494d414c53000000000000000000000000000000005f82015250565b5f612c586010836128c4565b9150612c6382612c24565b602082019050919050565b5f6020820190508181035f830152612c8581612c4c565b9050919050565b7f4e4f5f4e41544956455f53454e540000000000000000000000000000000000005f82015250565b5f612cc0600e836128c4565b9150612ccb82612c8c565b602082019050919050565b5f6020820190508181035f830152612ced81612cb4565b9050919050565b5f612cfe826126b8565b9150612d09836126b8565b9250828202612d17816126b8565b91508282048414831517612d2e57612d2d612b29565b5b5092915050565b7f4e487b71000000000000000000000000000000000000000000000000000000005f52601260045260245ffd5b5f612d6c826126b8565b9150612d77836126b8565b925082612d8757612d86612d35565b5b828204905092915050565b5f5ffd5b5f5ffd5b7f4e487b71000000000000000000000000000000000000000000000000000000005f52604160045260245ffd5b612dd0826128e2565b810181811067ffffffffffffffff82111715612def57612dee612d9a565b5b80604052505050565b5f612e016126e9565b9050612e0d8282612dc7565b919050565b5f67ffffffffffffffff821115612e2c57612e2b612d9a565b5b612e35826128e2565b9050602081019050919050565b5f612e54612e4f84612e12565b612df8565b905082815260208101848484011115612e7057612e6f612d96565b5b612e7b8482856128d4565b509392505050565b5f82601f830112612e9757612e96612d92565b5b8151612ea7848260208601612e42565b91505092915050565b5f60208284031215612ec557612ec46126f2565b5b5f82015167ffffffffffffffff811115612ee257612ee16126f6565b5b612eee84828501612e83565b91505092915050565b7f504f4f4c5f4c49515f4c4f5700000000000000000000000000000000000000005f82015250565b5f612f2b600c836128c4565b9150612f3682612ef7565b602082019050919050565b5f6020820190508181035f830152612f5881612f1f565b9050919050565b5f69ffffffffffffffffffff82169050919050565b612f7d81612f5f565b8114612f87575f5ffd5b50565b5f81519050612f9881612f74565b92915050565b5f819050919050565b612fb081612f9e565b8114612fba575f5ffd5b50565b5f81519050612fcb81612fa7565b92915050565b5f81519050612fdf81612754565b92915050565b5f5f5f5f5f60a08688031215612ffe57612ffd6126f2565b5b5f61300b88828901612f8a565b955050602061301c88828901612fbd565b945050604061302d88828901612fd1565b935050606061303e88828901612fd1565b925050608061304f88828901612f8a565b9150509295509295909350565b7f50524943455f464545445f4e4f545f53455400000000000000000000000000005f82015250565b5f6130906012836128c4565b915061309b8261305c565b602082019050919050565b5f6020820190508181035f8301526130bd81613084565b9050919050565b7f53414d455f544f4b454e000000000000000000000000000000000000000000005f82015250565b5f6130f8600a836128c4565b9150613103826130c4565b602082019050919050565b5f6020820190508181035f830152613125816130ec565b9050919050565b7f494e56414c49445f5155414e54495459000000000000000000000000000000005f82015250565b5f6131606010836128c4565b915061316b8261312c565b602082019050919050565b5f6020820190508181035f83015261318d81613154565b9050919050565b7f494e53554646494349454e545f42414c414e43450000000000000000000000005f82015250565b5f6131c86014836128c4565b91506131d382613194565b602082019050919050565b5f6020820190508181035f8301526131f5816131bc565b9050919050565b7f4e4f5f4c495155494449545900000000000000000000000000000000000000005f82015250565b5f613230600c836128c4565b915061323b826131fc565b602082019050919050565b5f6020820190508181035f83015261325d81613224565b9050919050565b7f50524943455f4e4f545f415641494c41424c45000000000000000000000000005f82015250565b5f6132986013836128c4565b91506132a382613264565b602082019050919050565b5f6020820190508181035f8301526132c58161328c565b9050919050565b7f494e53554646494349454e545f4c4951554944495459000000000000000000005f82015250565b5f6133006016836128c4565b915061330b826132cc565b602082019050919050565b5f6020820190508181035f83015261332d816132f4565b9050919050565b5f6080820190506133475f83018761294a565b613354602083018661294a565b61336160408301856126c1565b61336e60608301846126c1565b95945050505050565b7f494e56414c49445f544f4b454e000000000000000000000000000000000000005f82015250565b5f6133ab600d836128c4565b91506133b682613377565b602082019050919050565b5f6020820190508181035f8301526133d88161339f565b9050919050565b5f6060820190506133f25f83018661294a565b6133ff602083018561294a565b61340c60408301846126c1565b949350505050565b5f6040820190506134275f83018561294a565b61343460208301846126c1565b9392505050565b5f81905092915050565b7f55534400000000000000000000000000000000000000000000000000000000005f82015250565b5f61347960038361343b565b915061348482613445565b600382019050919050565b5f6134998261346d565b9150819050919050565b5f6134ad826128ba565b6134b7818561343b565b93506134c78185602086016128d4565b80840191505092915050565b5f6134de82846134a3565b91508190509291505056fea26469706673582212209bee11ebfe39be9228410ecb9d13ef00bdf6f7d758b667c235585bd8ed48e25c64736f6c634300081e0033","linkReferences":{}},"methodIdentifiers":{"NATIVE()":"a0cf0aea","addLiquidity(address,uint256)":"56688700","balanceOfToken(address,address)":"f59e38b7","checkTokenSupported(address)":"81f8a6f7","deposit(address,uint256)":"47e7ef24","getExchangeRate(address,address,uint256)":"6b441d8a","getTokenPrice(address)":"d02641a0","getTokenPriceFeedInfo(address)":"e567bae2","getTokenSymbol(address)":"81a73ad5","isTokenSupported(address)":"75151b63","owner()":"8da5cb5b","poolLiquidity(address)":"a135ef17","removeLiquidity(address,uint256)":"a201ccf6","renounceOwnership()":"715018a6","setTokenPriceFeed(address,address,uint256)":"33cccdb1","setUSDToken(address,uint256)":"fc10b027","swap(address,address,uint256)":"df791e50","tokenDecimals(address)":"8ee573ac","tokenPriceFeeds(address)":"bd9c47e3","transferInternal(address,address,uint256)":"222f5be0","transferOwnership(address)":"f2fde38b","withdraw(address,uint256,address)":"69328dec"},"id":28}